:100000000A128A11E22FFF1B0D2883137F18831712
:100010000008840A0319FF0A080000308A00040857
:10002000840A820700344D345534533454344134F7
:10003000463441344F34473455345A3420344134F3
:100040005434453453340034203420342034423482
:100050003234303430343134303431343034343478
:100060003334003459346F346E343A340034483405
:1000700069347A343A340034253433346434003407
:10008000533461346734003453346F346C34003487
:1002260008001E34003464008001840A04060319A1
:1002360000340406172900300A128A113C210A12DA
:100246008A1101300A128A113C210A128A11080009
:10025600F71B2E292F2930293B297609F800770923
:10026600F900F80A0319F90A7808F6007908F70080
:100276000800F30083120313071073080A128A1189
:10028600CA210A128A118312031387150630F20057
:100296003030F100F10B4D29F20B4D29000083128D
:1002A60003138711080083120313971270185C2931
:1002B6006029831203131716632983120313171277
:1002C6007108F3007008F200730DF30CF20C730D55
:1002D600F30CF20C720895000800831203139D12AA
:1002E600701876297A29831203131D167D29831225
:1002F60003131D127108F3007008F200730DF30C5E
:10030600F20C730DF30CF20C72089B0008008312BA
:100316000313C6004230C5004608C700C901CA011A
:10032600D001D1014108BD004530BE0047300A1258
:100336008A11A9210A128A11831203134908460752
:10034600C400440884008313800108008312031349
:10035600BF003D08C000B9294030B3003E08B400D4
:100366003F080A128A11AA250A128A118312031358
:10037600400884000A128A110D200A128A11003AD6
:10038600031DC629C729AF29BD01BE010800F0001B
:10039600701CCE29CF29D329831203130816D62918
:1003A600831203130812F01CD929DA29DC298816CE
:1003B600DD298812701DE029E129E3290817E429BF
:1003C6000813F01DE729E829EA298817EB2988137D
:1003D6000800F401F501701CF129F229F8297208C8
:1003E600F4070318F50A7308F50701300310F20D38
:1003F600F30DFF3E031DF92901300310F10CF00C3B
:10040600FF3E031D002A70087104031D0B2A0C2AE7
:10041600EE297508F1007408F00008008312031332
:10042600A300A101A2012D2A2008F900FA017908EA
:10043600F0007A08F1007808F2000A128A1178238F
:100446000A128A11013083120313A1070318A20AA4
:100456000030A20721082307F900790884008313D6
:100466000008A0002008031D392A3A2A172A080086
:10047600F40074080F39F2007408F039F30083129F
:10048600031307147308F10004300310F10CFF3E48
:10049600031D482A71080A128A11CA210A128A11F2
:1004A6008312031387150D30F100F10B582A8312BE
:1004B6000313871172080A128A11CA210A128A11B5
:1004C6008312031387150D30F100F10B682A83128E
:1004D600031387110800F401F40A01300A128A1185
:1004E600E6220A128A111230F5008030F6000A124E
:1004F6008A11A4220A128A11F401F40A02300A129D
:100506008A11E6220A128A110130F5008030F600BF
:100516000A128A11A4220A128A11103083120313B6
:10052600A2003930A1000D30A000A00B982AA10B23
:10053600982AA20B982A0A128A111E210A128A11D7
:100546000800FA01FB01C92A7A087507F80076083F
:10055600F7000318F70AFA1FB12AF7037708F9001C
:10056600790883120313FF00780884000A128A119F
:1005760003200A128A110A128A113B220A128A11D0
:100586000130FA070318FB0A0030FB077A087507E3
:10059600F8007608F7000318F70AFA1FD32AF703BC
:1005A6007708F900790883120313FF00780884009E
:1005B6000A128A1103200A128A11003A031DE42A3C
:1005C600E52AA72A0800F6007603031DEB2AEC2A83
:1005D600092B74087F3EF9007908F50004300310F2
:1005E600F50CFF3E031DF22A7508F70079080F394E
:1005F600F80077080A128A113C210A128A11780833
:100606000A128A113C210A128A112B2B0230760615
:10061600031D0E2B0F2B2B2B7408BF3EF9007908F8
:10062600F50004300310F50CFF3E031D152B75086D
:10063600F70079080F39F80077080A128A113C2169
:100646000A128A1178080A128A113C210A128A11A2
:10065600080083120313A7006C1C322B332B3B2B91
:100666002708F8007B080A128A1111220A128A1139
:10067600FD1F3E2B3F2B412BFC01FD018312031373
:10068600A501A6015B2B2030F0000030F10083129B
:1006960003132708F2000A128A1178230A128A1114
:1006A600013083120313A5070318A60A0030A60714
:1006B6002608803AA4007D08803A2402031D652B93
:1006C6007C082502031C682B692B462B8312031317
:1006D6006C186E2B6F2B772B2708F8007B080A12F5
:1006E6008A1111220A128A110800720803197C2B3A
:1006F6007D2B822B7208031D812B822B892B700880
:100706000A128A1113210A128A11CD2B7208093E88
:10071600840083130008F300840A0008F4007308B9
:1007260074040319972B982BB62B7208093E840084
:100736000008F300840A0008F4007208023E8400F0
:100746000008F500840A0008F6007608803AF700EB
:100756007408803A7702031DB22B730875020318DA
:10076600B52BB62BCD2B7208023E840083130008EE
:10077600F3007208840000087307F400740884000C
:10078600700880007208023E840001308007840AE7
:100796000318800A0800FB00F901FA017B088400AF
:1007A6008313000884000A128A110D200A128A1186
:1007B6002A3A031DDF2BE02B102C0130FF007B08AB
:1007C60084007F088007760884000008FF00023056
:1007D60080077F0884000008F900840A0008FA00F0
:1007E600212C7A08F1007908F0000A30F200003076
:1007F600F3000A128A11EC210A128A11780870078E
:10080600F9000030031801307107FA000130FF00CB
:100816007B0884007F08831380077B088400000818
:1008260084000A128A110D200A128A11D03EF8009D
:100836000A307802031C202C212CF42B7A08F700AE
:100846007908F6000800F501F31F2A2C2B2C322C10
:10085600F209F309F20A0319F30AF501F50AF11F81
:10086600352C362C3B2CF009F109F00A0319F10A54
:10087600700871040319402C412C702CF401F40A01
:100886004F2C01300310F00DF10DFF3E031D452CDA
:100896000130FF007F08F407F11F522C532C442C23
:1008A60071087302031D592C70087202031C5C2C1C
:1008B6005D2C632C7008F2027108031CF303F3022B
:1008C60001300310F10CF00CFF3E031D642C0130C7
:1008D600F402031D6F2C702C532C75080319742C0D
:1008E600752C7A2CF209F309F20A0319F30A730834
:1008F600F1007208F000080000300A128A11CA21BD
:100906000A128A111A30F500F830F400F40B892C1B
:10091600F50B892C000003300A128A113C210A12B9
:100926008A110730F5007D30F400F40B982CF50B96
:10093600982C03300A128A113C210A128A110F30B0
:10094600F5004730F400F40BA62CF50BA62CAB2CC7
:1009560003300A128A113C210A128A1102300A1245
:100966008A113C210A128A1102300A128A113C218C
:100976000A128A1108300A128A113C210A128A11B7
:1009860000300A128A113C210A128A110C300A120E
:100996008A113C210A128A1100300A128A113C215E
:1009A6000A128A1106300A128A113C210A128A1189
:1009B60008008312031320082104031DE32CE42CF2
:1009C6000F2D2308F1002208F0000A128A11562181
:1009D6000A128A110030F000F1000A128A11702101
:1009E6000A128A110330FD009730FC00FC0BF92C2B
:1009F600FD0BF92CFE2C0930F40002300A128A1184
:100A0600E6220A128A113230F5008030F6000A1208
:100A16008A11A4220A128A118312031320032104C5
:100A2600031D162D172D422D2308F1002208F00074
:100A36000A128A1170210A128A110030F000F100A0
:100A46000A128A1156210A128A110330FD009730C4
:100A5600FC00FC0B2C2DFD0B2C2D312D0930F40048
:100A660002300A128A11E6220A128A112E30F50085
:100A76008030F6000A128A11A4220A128A1108008E
:100A8600F501F11F472D482D4F2DF009F109F00A08
:100A96000319F10AF501F50AF31F522D532D5C2DAA
:100AA600F209F309F20A0319F30A0130FF007F087D
:100AB600F506F601F701700871040319632D642D1C
:100AC6009B2DF401F40A722D01300310F00DF10D87
:100AD600FF3E031D682D0130FF007F08F407F11F5C
:100AE600752D762D672D01300310F60DF70DFF3E9F
:100AF600031D772D71087302031D832D7008720282
:100B0600031C862D872D8E2D7008F2027108031C9A
:100B1600F303F302761401300310F10CF00CFF3EE0
:100B2600031D8F2D0130F402031D9A2D9B2D762D6A
:100B3600750803199F2DA02DA52DF609F709F60AAC
:100B46000319F70A7708F1007608F0000800831207
:100B56000313BB00330884008313000884000A12C1
:100B66008A110D200A128A11253A031DBB2DBC2DB0
:100B7600292E0130FF00330884007F088007E80132
:100B8600E9010310003003180130EC00FF30EA00E1
:100B9600FF30EB003408F60033080A128A11CE2320
:100BA6000A128A11770883120313E9007608E8000F
:100BB600E91FDE2DDF2DE52D6C14E809E909E80AA9
:100BC6000319E90A3308840083130008BC003C08B3
:100BD60084000A128A110D200A128A11643A031936
:100BE600F52DF62D022E3C0884000A128A110D20DE
:100BF6000A128A11693A031D012E022E1F2E34088D
:100C060084000008FF00023080077F088400000887
:100C1600B700840A0008B800330884003C08013E87
:100C260080003808A9003708A8003B080A128A1174
:100C360041260A128A11402E0130FF008312031347
:100C4600330884007F0883138007402E330884000E
:100C5600000884000A128A110D200A128A11B500B2
:100C6600B6013508F0003608F1003B08F2000A121A
:100C76008A1178230A128A111F2E08008312031381
:100C8600AC00AF01AF0AA91B492E4B2E01304C2EEA
:100C96000030B0006908AE006808AD0030080319DE
:100CA600552E562E6C2EFF30AD070318AE0AFF30B8
:100CB600AE073008031D602E612E662E2B30AA006B
:100CC6000030AB006A2E2D30AA000030AB002A0897
:100CD600B0001F30B1000030B20083160313BF010D
:100CE600B32EFF30B1070318B20AFF30B20731083E
:100CF600A03E84000A30F0000030F1002908F3001D
:100D06002808F2000A128A1126240A128A1171088A
:100D1600F7007008F6000A128A112B210A128A11AE
:100D26007608303E8313800083120313AF01FF3031
:100D3600AD070318AE0AFF30AE070A30F0000030E8
:100D4600F1002908F3002808F2000A128A11432547
:100D56000A128A11710883120313A9007008A800E9
:100D660083123208803AFF0080307F02031DBD2EB9
:100D760001303102031CC02EC12ECE2E8312031366
:100D860028082904031DC82EC92E742E2F08031DFA
:100D9600CD2ECE2E742E8312031330080319D42EB3
:100DA600D52EE12EFF30B1070318B20AFF30B20785
:100DB6003108A03E84003008831380003108A03E2D
:100DC600FB002E08FD002D08FC002C080A128A11D3
:100DD6002C230A128A11080083160313880187013F
:100DE600FF308600831203138801870186010A12E9
:100DF6008A117F240A128A11831203139715171575
:100E06009D151D151214921012159101F9308316B5
:100E1600031392000A128A116E220A128A110330F3
:100E260083120313D3009730D200D20B182FD30BA3
:100E3600182F0530F40001300A128A11E6220A1230
:100E46008A112530F5008030F6000A128A11A42294
:100E56000A128A110530F40002300A128A11E622BB
:100E66000A128A112030F5008030F6000A128A1123
:100E7600A4220A128A11831203130618432F442F41
:100E8600642F061C472F482F442F6D08013EED00A6
:100E96006E080318013E003EEE006E08803AFF0021
:100EA60080307F02031D592F64306D02031C5C2FB6
:100EB6005D2F9D2F643083120313ED000030EE008A
:100EC6009D2F8618672F682F862F861C6B2F6C2FF9
:100ED600682F6D08FF3EED006E080318013EFF3EC9
:100EE600EE006E08803AFF0080307F02031D7D2FE2
:100EF60001306D020318802F812F9D2F831203135B
:100F0600ED01EE019D2F061B892F8A2F932F061FB9
:100F16008D2F8E2F8A2F0130E6000030E7009D2F9F
:100F2600861B962F972F9D2F861F9A2F9B2F972FC5
:100F3600E601E701831203136E08F1006D08F00065
:100F46000A30F2000030F3000A128A11EC210A126C
:100F56008A11710883120313E5007008E4002A3031
:100F6600C1006E08C3006D08C20054300A128A110F
:100F76008A210A128A110930F40001300A128A11F4
:100F8600E6220A128A115430F5000030F6000A12E1
:100F96008A11A4220A128A11831203136708A10078
:100FA6006608A0006508A3006408A2000A128A1158
:100FB600DC240A128A111C2F0A128A1100280A122E
:100FC6008A1114210A128A11ED000A128A111521BA
:100FD6000A128A11EE008313A0308400C0300A1270
:100FE6008A1116210A128A11E801E901EA01EB01C8
:0A0FF600EC0183010A128A11EF2EAC
:08400000FF3FFF3FFF3FFF3FC0
:02400E00F93F78
:00000001FF
